{
  "_format": "hh-sol-artifact-1",
  "contractName": "ALUAssetRegistry",
  "sourceName": "contracts/ALUAssetRegistry.sol",
  "abi": [
    {
      "inputs": [],
      "stateMutability": "nonpayable",
      "type": "constructor"
    },
    {
      "inputs": [
        {
          "internalType": "address",
          "name": "sender",
          "type": "address"
        },
        {
          "internalType": "uint256",
          "name": "tokenId",
          "type": "uint256"
        },
        {
          "internalType": "address",
          "name": "owner",
          "type": "address"
        }
      ],
      "name": "ERC721IncorrectOwner",
      "type": "error"
    },
    {
      "inputs": [
        {
          "internalType": "address",
          "name": "operator",
          "type": "address"
        },
        {
          "internalType": "uint256",
          "name": "tokenId",
          "type": "uint256"
        }
      ],
      "name": "ERC721InsufficientApproval",
      "type": "error"
    },
    {
      "inputs": [
        {
          "internalType": "address",
          "name": "approver",
          "type": "address"
        }
      ],
      "name": "ERC721InvalidApprover",
      "type": "error"
    },
    {
      "inputs": [
        {
          "internalType": "address",
          "name": "operator",
          "type": "address"
        }
      ],
      "name": "ERC721InvalidOperator",
      "type": "error"
    },
    {
      "inputs": [
        {
          "internalType": "address",
          "name": "owner",
          "type": "address"
        }
      ],
      "name": "ERC721InvalidOwner",
      "type": "error"
    },
    {
      "inputs": [
        {
          "internalType": "address",
          "name": "receiver",
          "type": "address"
        }
      ],
      "name": "ERC721InvalidReceiver",
      "type": "error"
    },
    {
      "inputs": [
        {
          "internalType": "address",
          "name": "sender",
          "type": "address"
        }
      ],
      "name": "ERC721InvalidSender",
      "type": "error"
    },
    {
      "inputs": [
        {
          "internalType": "uint256",
          "name": "tokenId",
          "type": "uint256"
        }
      ],
      "name": "ERC721NonexistentToken",
      "type": "error"
    },
    {
      "inputs": [
        {
          "internalType": "address",
          "name": "owner",
          "type": "address"
        }
      ],
      "name": "OwnableInvalidOwner",
      "type": "error"
    },
    {
      "inputs": [
        {
          "internalType": "address",
          "name": "account",
          "type": "address"
        }
      ],
      "name": "OwnableUnauthorizedAccount",
      "type": "error"
    },
    {
      "anonymous": false,
      "inputs": [
        {
          "indexed": true,
          "internalType": "address",
          "name": "owner",
          "type": "address"
        },
        {
          "indexed": true,
          "internalType": "address",
          "name": "approved",
          "type": "address"
        },
        {
          "indexed": true,
          "internalType": "uint256",
          "name": "tokenId",
          "type": "uint256"
        }
      ],
      "name": "Approval",
      "type": "event"
    },
    {
      "anonymous": false,
      "inputs": [
        {
          "indexed": true,
          "internalType": "address",
          "name": "owner",
          "type": "address"
        },
        {
          "indexed": true,
          "internalType": "address",
          "name": "operator",
          "type": "address"
        },
        {
          "indexed": false,
          "internalType": "bool",
          "name": "approved",
          "type": "bool"
        }
      ],
      "name": "ApprovalForAll",
      "type": "event"
    },
    {
      "anonymous": false,
      "inputs": [
        {
          "indexed": true,
          "internalType": "uint256",
          "name": "tokenId",
          "type": "uint256"
        },
        {
          "indexed": false,
          "internalType": "string",
          "name": "name",
          "type": "string"
        },
        {
          "indexed": false,
          "internalType": "bytes32",
          "name": "contentHash",
          "type": "bytes32"
        },
        {
          "indexed": false,
          "internalType": "address",
          "name": "registeredBy",
          "type": "address"
        }
      ],
      "name": "AssetRegistered",
      "type": "event"
    },
    {
      "anonymous": false,
      "inputs": [
        {
          "indexed": true,
          "internalType": "address",
          "name": "previousOwner",
          "type": "address"
        },
        {
          "indexed": true,
          "internalType": "address",
          "name": "newOwner",
          "type": "address"
        }
      ],
      "name": "OwnershipTransferred",
      "type": "event"
    },
    {
      "anonymous": false,
      "inputs": [
        {
          "indexed": true,
          "internalType": "address",
          "name": "from",
          "type": "address"
        },
        {
          "indexed": true,
          "internalType": "address",
          "name": "to",
          "type": "address"
        },
        {
          "indexed": true,
          "internalType": "uint256",
          "name": "tokenId",
          "type": "uint256"
        }
      ],
      "name": "Transfer",
      "type": "event"
    },
    {
      "inputs": [
        {
          "internalType": "address",
          "name": "to",
          "type": "address"
        },
        {
          "internalType": "uint256",
          "name": "tokenId",
          "type": "uint256"
        }
      ],
      "name": "approve",
      "outputs": [],
      "stateMutability": "nonpayable",
      "type": "function"
    },
    {
      "inputs": [
        {
          "internalType": "address",
          "name": "owner",
          "type": "address"
        }
      ],
      "name": "balanceOf",
      "outputs": [
        {
          "internalType": "uint256",
          "name": "",
          "type": "uint256"
        }
      ],
      "stateMutability": "view",
      "type": "function"
    },
    {
      "inputs": [
        {
          "internalType": "uint256",
          "name": "tokenId",
          "type": "uint256"
        }
      ],
      "name": "getApproved",
      "outputs": [
        {
          "internalType": "address",
          "name": "",
          "type": "address"
        }
      ],
      "stateMutability": "view",
      "type": "function"
    },
    {
      "inputs": [
        {
          "internalType": "uint256",
          "name": "tokenId",
          "type": "uint256"
        }
      ],
      "name": "getAsset",
      "outputs": [
        {
          "components": [
            {
              "internalType": "string",
              "name": "name",
              "type": "string"
            },
            {
              "internalType": "string",
              "name": "fileType",
              "type": "string"
            },
            {
              "internalType": "bytes32",
              "name": "contentHash",
              "type": "bytes32"
            },
            {
              "internalType": "address",
              "name": "registeredBy",
              "type": "address"
            },
            {
              "internalType": "uint256",
              "name": "registeredAt",
              "type": "uint256"
            }
          ],
          "internalType": "struct ALUAssetRegistry.AssetMetadata",
          "name": "",
          "type": "tuple"
        }
      ],
      "stateMutability": "view",
      "type": "function"
    },
    {
      "inputs": [
        {
          "internalType": "address",
          "name": "owner",
          "type": "address"
        },
        {
          "internalType": "address",
          "name": "operator",
          "type": "address"
        }
      ],
      "name": "isApprovedForAll",
      "outputs": [
        {
          "internalType": "bool",
          "name": "",
          "type": "bool"
        }
      ],
      "stateMutability": "view",
      "type": "function"
    },
    {
      "inputs": [],
      "name": "name",
      "outputs": [
        {
          "internalType": "string",
          "name": "",
          "type": "string"
        }
      ],
      "stateMutability": "view",
      "type": "function"
    },
    {
      "inputs": [],
      "name": "owner",
      "outputs": [
        {
          "internalType": "address",
          "name": "",
          "type": "address"
        }
      ],
      "stateMutability": "view",
      "type": "function"
    },
    {
      "inputs": [
        {
          "internalType": "uint256",
          "name": "tokenId",
          "type": "uint256"
        }
      ],
      "name": "ownerOf",
      "outputs": [
        {
          "internalType": "address",
          "name": "",
          "type": "address"
        }
      ],
      "stateMutability": "view",
      "type": "function"
    },
    {
      "inputs": [
        {
          "internalType": "string",
          "name": "assetName",
          "type": "string"
        },
        {
          "internalType": "string",
          "name": "fileType",
          "type": "string"
        },
        {
          "internalType": "bytes32",
          "name": "contentHash",
          "type": "bytes32"
        }
      ],
      "name": "registerAsset",
      "outputs": [
        {
          "internalType": "uint256",
          "name": "tokenId",
          "type": "uint256"
        }
      ],
      "stateMutability": "nonpayable",
      "type": "function"
    },
    {
      "inputs": [],
      "name": "renounceOwnership",
      "outputs": [],
      "stateMutability": "nonpayable",
      "type": "function"
    },
    {
      "inputs": [
        {
          "internalType": "address",
          "name": "from",
          "type": "address"
        },
        {
          "internalType": "address",
          "name": "to",
          "type": "address"
        },
        {
          "internalType": "uint256",
          "name": "tokenId",
          "type": "uint256"
        }
      ],
      "name": "safeTransferFrom",
      "outputs": [],
      "stateMutability": "nonpayable",
      "type": "function"
    },
    {
      "inputs": [
        {
          "internalType": "address",
          "name": "from",
          "type": "address"
        },
        {
          "internalType": "address",
          "name": "to",
          "type": "address"
        },
        {
          "internalType": "uint256",
          "name": "tokenId",
          "type": "uint256"
        },
        {
          "internalType": "bytes",
          "name": "data",
          "type": "bytes"
        }
      ],
      "name": "safeTransferFrom",
      "outputs": [],
      "stateMutability": "nonpayable",
      "type": "function"
    },
    {
      "inputs": [
        {
          "internalType": "address",
          "name": "operator",
          "type": "address"
        },
        {
          "internalType": "bool",
          "name": "approved",
          "type": "bool"
        }
      ],
      "name": "setApprovalForAll",
      "outputs": [],
      "stateMutability": "nonpayable",
      "type": "function"
    },
    {
      "inputs": [
        {
          "internalType": "bytes4",
          "name": "interfaceId",
          "type": "bytes4"
        }
      ],
      "name": "supportsInterface",
      "outputs": [
        {
          "internalType": "bool",
          "name": "",
          "type": "bool"
        }
      ],
      "stateMutability": "view",
      "type": "function"
    },
    {
      "inputs": [],
      "name": "symbol",
      "outputs": [
        {
          "internalType": "string",
          "name": "",
          "type": "string"
        }
      ],
      "stateMutability": "view",
      "type": "function"
    },
    {
      "inputs": [
        {
          "internalType": "uint256",
          "name": "tokenId",
          "type": "uint256"
        }
      ],
      "name": "tokenURI",
      "outputs": [
        {
          "internalType": "string",
          "name": "",
          "type": "string"
        }
      ],
      "stateMutability": "view",
      "type": "function"
    },
    {
      "inputs": [
        {
          "internalType": "address",
          "name": "from",
          "type": "address"
        },
        {
          "internalType": "address",
          "name": "to",
          "type": "address"
        },
        {
          "internalType": "uint256",
          "name": "tokenId",
          "type": "uint256"
        }
      ],
      "name": "transferFrom",
      "outputs": [],
      "stateMutability": "nonpayable",
      "type": "function"
    },
    {
      "inputs": [
        {
          "internalType": "address",
          "name": "newOwner",
          "type": "address"
        }
      ],
      "name": "transferOwnership",
      "outputs": [],
      "stateMutability": "nonpayable",
      "type": "function"
    },
    {
      "inputs": [
        {
          "internalType": "uint256",
          "name": "tokenId",
          "type": "uint256"
        },
        {
          "internalType": "bytes32",
          "name": "contentHash",
          "type": "bytes32"
        }
      ],
      "name": "verifyLogoIntegrity",
      "outputs": [
        {
          "internalType": "bool",
          "name": "isAuthentic",
          "type": "bool"
        },
        {
          "internalType": "string",
          "name": "message",
          "type": "string"
        }
      ],
      "stateMutability": "view",
      "type": "function"
    }
  ],
  "bytecode": "0x608060405234801561000f575f5ffd5b503360405180604001604052806012815260200171414c5520417373657420526567697374727960701b815250604051806040016040528060088152602001671053155054d4d15560c21b815250815f908161006b91906101a0565b50600161007882826101a0565b5050506001600160a01b0381166100a857604051631e4fbdf760e01b81525f600482015260240160405180910390fd5b6100b1816100b7565b5061025a565b600680546001600160a01b038381166001600160a01b0319831681179093556040519116919082907f8be0079c531659141344cd1fd0a4f28419497f9722a3daafe3b4186f6b6457e0905f90a35050565b634e487b7160e01b5f52604160045260245ffd5b600181811c9082168061013057607f821691505b60208210810361014e57634e487b7160e01b5f52602260045260245ffd5b50919050565b601f82111561019b57805f5260205f20601f840160051c810160208510156101795750805b601f840160051c820191505b81811015610198575f8155600101610185565b50505b505050565b81516001600160401b038111156101b9576101b9610108565b6101cd816101c7845461011c565b84610154565b6020601f8211600181146101ff575f83156101e85750848201515b5f19600385901b1c1916600184901b178455610198565b5f84815260208120601f198516915b8281101561022e578785015182556020948501946001909201910161020e565b508482101561024b57868401515f19600387901b60f8161c191681555b50505050600190811b01905550565b611863806102675f395ff3fe608060405234801561000f575f5ffd5b506004361061011c575f3560e01c80638802a541116100a9578063b88d4fde1161006e578063b88d4fde1461025f578063c87b56dd14610272578063e985e9c514610285578063eac8f5b814610298578063f2fde38b146102b8575f5ffd5b80638802a541146101ff5780638da5cb5b1461021257806395d89b411461022357806397e430ee1461022b578063a22cb4651461024c575f5ffd5b806323b872dd116100ef57806323b872dd1461019d57806342842e0e146101b05780636352211e146101c357806370a08231146101d6578063715018a6146101f7575f5ffd5b806301ffc9a71461012057806306fdde0314610148578063081812fc1461015d578063095ea7b314610188575b5f5ffd5b61013361012e36600461124f565b6102cb565b60405190151581526020015b60405180910390f35b61015061031c565b60405161013f9190611298565b61017061016b3660046112aa565b6103ab565b6040516001600160a01b03909116815260200161013f565b61019b6101963660046112dc565b6103d2565b005b61019b6101ab366004611304565b6103e1565b61019b6101be366004611304565b61046f565b6101706101d13660046112aa565b61048e565b6101e96101e436600461133e565b610498565b60405190815260200161013f565b61019b6104dd565b6101e961020d366004611395565b6104f0565b6006546001600160a01b0316610170565b6101506106e6565b61023e610239366004611408565b6106f5565b60405161013f929190611428565b61019b61025a366004611442565b6107dd565b61019b61026d36600461148f565b6107e8565b6101506102803660046112aa565b610800565b61013361029336600461156c565b610871565b6102ab6102a63660046112aa565b61089e565b60405161013f919061159d565b61019b6102c636600461133e565b610a95565b5f6001600160e01b031982166380ac58cd60e01b14806102fb57506001600160e01b03198216635b5e139f60e01b145b8061031657506301ffc9a760e01b6001600160e01b03198316145b92915050565b60605f805461032a90611608565b80601f016020809104026020016040519081016040528092919081815260200182805461035690611608565b80156103a15780601f10610378576101008083540402835291602001916103a1565b820191905f5260205f20905b81548152906001019060200180831161038457829003601f168201915b5050505050905090565b5f6103b582610ad2565b505f828152600460205260409020546001600160a01b0316610316565b6103dd828233610b0a565b5050565b6001600160a01b03821661040f57604051633250574960e11b81525f60048201526024015b60405180910390fd5b5f61041b838333610b17565b9050836001600160a01b0316816001600160a01b031614610469576040516364283d7b60e01b81526001600160a01b0380861660048301526024820184905282166044820152606401610406565b50505050565b61048983838360405180602001604052805f8152506107e8565b505050565b5f61031682610ad2565b5f6001600160a01b0382166104c2576040516322718ad960e21b81525f6004820152602401610406565b506001600160a01b03165f9081526003602052604090205490565b6104e5610c09565b6104ee5f610c36565b565b5f8181526009602052604081205460ff16156105665760405162461bcd60e51b815260206004820152602f60248201527f41737365742077697468207468697320636f6e74656e74206861736820616c7260448201526e1958591e481c9959da5cdd195c9959608a1b6064820152608401610406565b50600780549081905f61057883611640565b91905055506105873382610c87565b6040518060a0016040528087878080601f0160208091040260200160405190810160405280939291908181526020018383808284375f92019190915250505090825250604080516020601f8801819004810282018101909252868152918101919087908790819084018382808284375f9201829052509385525050506020808301869052336040808501919091524260609094019390935284825260089052208151819061063590826116a8565b506020820151600182019061064a90826116a8565b50604082810151600283015560608301516003830180546001600160a01b0319166001600160a01b039092169190911790556080909201516004909101555f8381526009602052819020805460ff191660011790555181907fe91b35acb617d4d94bebfb32d4c22892b6c01053999d98f62787ba481c2e9180906106d5908990899087903390611763565b60405180910390a295945050505050565b60606001805461032a90611608565b5f828152600260205260408120546060906001600160a01b03166107525760405162461bcd60e51b8152602060048201526014602482015273151bdad95b88191bd95cc81b9bdd08195e1a5cdd60621b6044820152606401610406565b5f8481526008602052604090206002015483900361079d5750506040805180820190915260128152712637b3b79034b99030baba3432b73a34b19760711b60208201526001906107d6565b505060408051808201909152601d81527f5761726e696e673a206c6f676f20646f6573206e6f74206d617463682e00000060208201525f905b9250929050565b6103dd338383610ca0565b6107f38484846103e1565b6104693385858585610d67565b606061080b82610ad2565b505f61082160408051602081019091525f815290565b90505f81511161083f5760405180602001604052805f81525061086a565b8061084984610e8f565b60405160200161085a9291906117c2565b6040516020818303038152906040525b9392505050565b6001600160a01b039182165f90815260056020908152604080832093909416825291909152205460ff1690565b6108d66040518060a0016040528060608152602001606081526020015f81526020015f6001600160a01b031681526020015f81525090565b5f828152600260205260409020546001600160a01b03166109305760405162461bcd60e51b8152602060048201526014602482015273151bdad95b88191bd95cc81b9bdd08195e1a5cdd60621b6044820152606401610406565b5f8281526008602052604090819020815160a0810190925280548290829061095790611608565b80601f016020809104026020016040519081016040528092919081815260200182805461098390611608565b80156109ce5780601f106109a5576101008083540402835291602001916109ce565b820191905f5260205f20905b8154815290600101906020018083116109b157829003601f168201915b505050505081526020016001820180546109e790611608565b80601f0160208091040260200160405190810160405280929190818152602001828054610a1390611608565b8015610a5e5780601f10610a3557610100808354040283529160200191610a5e565b820191905f5260205f20905b815481529060010190602001808311610a4157829003601f168201915b50505091835250506002820154602082015260038201546001600160a01b0316604082015260049091015460609091015292915050565b610a9d610c09565b6001600160a01b038116610ac657604051631e4fbdf760e01b81525f6004820152602401610406565b610acf81610c36565b50565b5f818152600260205260408120546001600160a01b03168061031657604051637e27328960e01b815260048101849052602401610406565b6104898383836001610f1f565b5f828152600260205260408120546001600160a01b0390811690831615610b4357610b43818486611023565b6001600160a01b03811615610b7d57610b5e5f855f5f610f1f565b6001600160a01b0381165f90815260036020526040902080545f190190555b6001600160a01b03851615610bab576001600160a01b0385165f908152600360205260409020805460010190555b5f8481526002602052604080822080546001600160a01b0319166001600160a01b0389811691821790925591518793918516917fddf252ad1be2c89b69c2b068fc378daa952ba7f163c4a11628f55a4df523b3ef91a4949350505050565b6006546001600160a01b031633146104ee5760405163118cdaa760e01b8152336004820152602401610406565b600680546001600160a01b038381166001600160a01b0319831681179093556040519116919082907f8be0079c531659141344cd1fd0a4f28419497f9722a3daafe3b4186f6b6457e0905f90a35050565b6103dd828260405180602001604052805f815250611087565b6001600160a01b038316610cc95760405163a9fbf51f60e01b81525f6004820152602401610406565b6001600160a01b038216610cfb57604051630b61174360e31b81526001600160a01b0383166004820152602401610406565b6001600160a01b038381165f81815260056020908152604080832094871680845294825291829020805460ff191686151590811790915591519182527f17307eab39ab6107e8899845ad3d59bd9653f200f220920489ca2b5937696c31910160405180910390a3505050565b6001600160a01b0383163b15610e8857604051630a85bd0160e11b81526001600160a01b0384169063150b7a0290610da99088908890879087906004016117d6565b6020604051808303815f875af1925050508015610de3575060408051601f3d908101601f19168201909252610de091810190611812565b60015b610e4a573d808015610e10576040519150601f19603f3d011682016040523d82523d5f602084013e610e15565b606091505b5080515f03610e4257604051633250574960e11b81526001600160a01b0385166004820152602401610406565b805160208201fd5b6001600160e01b03198116630a85bd0160e11b14610e8657604051633250574960e11b81526001600160a01b0385166004820152602401610406565b505b5050505050565b60605f610e9b8361109e565b60010190505f8167ffffffffffffffff811115610eba57610eba61147b565b6040519080825280601f01601f191660200182016040528015610ee4576020820181803683370190505b5090508181016020015b5f19016f181899199a1a9b1b9c1cb0b131b232b360811b600a86061a8153600a8504945084610eee57509392505050565b8080610f3357506001600160a01b03821615155b15610ff4575f610f4284610ad2565b90506001600160a01b03831615801590610f6e5750826001600160a01b0316816001600160a01b031614155b8015610f815750610f7f8184610871565b155b15610faa5760405163a9fbf51f60e01b81526001600160a01b0384166004820152602401610406565b8115610ff25783856001600160a01b0316826001600160a01b03167f8c5be1e5ebec7d5bd14f71427d1e84f3dd0314c0f7b2291e5b200ac8c7c3b92560405160405180910390a45b505b50505f90815260046020526040902080546001600160a01b0319166001600160a01b0392909216919091179055565b61102e838383611175565b610489576001600160a01b03831661105c57604051637e27328960e01b815260048101829052602401610406565b60405163177e802f60e01b81526001600160a01b038316600482015260248101829052604401610406565b61109183836111d9565b610489335f858585610d67565b5f8072184f03e93ff9f4daa797ed6e38ed64bf6a1f0160401b83106110dc5772184f03e93ff9f4daa797ed6e38ed64bf6a1f0160401b830492506040015b6d04ee2d6d415b85acef81000000008310611108576d04ee2d6d415b85acef8100000000830492506020015b662386f26fc10000831061112657662386f26fc10000830492506010015b6305f5e100831061113e576305f5e100830492506008015b612710831061115257612710830492506004015b60648310611164576064830492506002015b600a83106103165760010192915050565b5f6001600160a01b038316158015906111d15750826001600160a01b0316846001600160a01b031614806111ae57506111ae8484610871565b806111d157505f828152600460205260409020546001600160a01b038481169116145b949350505050565b6001600160a01b03821661120257604051633250574960e11b81525f6004820152602401610406565b5f61120e83835f610b17565b90506001600160a01b03811615610489576040516339e3563760e11b81525f6004820152602401610406565b6001600160e01b031981168114610acf575f5ffd5b5f6020828403121561125f575f5ffd5b813561086a8161123a565b5f81518084528060208401602086015e5f602082860101526020601f19601f83011685010191505092915050565b602081525f61086a602083018461126a565b5f602082840312156112ba575f5ffd5b5035919050565b80356001600160a01b03811681146112d7575f5ffd5b919050565b5f5f604083850312156112ed575f5ffd5b6112f6836112c1565b946020939093013593505050565b5f5f5f60608486031215611316575f5ffd5b61131f846112c1565b925061132d602085016112c1565b929592945050506040919091013590565b5f6020828403121561134e575f5ffd5b61086a826112c1565b5f5f83601f840112611367575f5ffd5b50813567ffffffffffffffff81111561137e575f5ffd5b6020830191508360208285010111156107d6575f5ffd5b5f5f5f5f5f606086880312156113a9575f5ffd5b853567ffffffffffffffff8111156113bf575f5ffd5b6113cb88828901611357565b909650945050602086013567ffffffffffffffff8111156113ea575f5ffd5b6113f688828901611357565b96999598509660400135949350505050565b5f5f60408385031215611419575f5ffd5b50508035926020909101359150565b8215158152604060208201525f6111d1604083018461126a565b5f5f60408385031215611453575f5ffd5b61145c836112c1565b915060208301358015158114611470575f5ffd5b809150509250929050565b634e487b7160e01b5f52604160045260245ffd5b5f5f5f5f608085870312156114a2575f5ffd5b6114ab856112c1565b93506114b9602086016112c1565b925060408501359150606085013567ffffffffffffffff8111156114db575f5ffd5b8501601f810187136114eb575f5ffd5b803567ffffffffffffffff8111156115055761150561147b565b604051601f8201601f19908116603f0116810167ffffffffffffffff811182821017156115345761153461147b565b60405281815282820160200189101561154b575f5ffd5b816020840160208301375f6020838301015280935050505092959194509250565b5f5f6040838503121561157d575f5ffd5b611586836112c1565b9150611594602084016112c1565b90509250929050565b602081525f825160a060208401526115b860c084018261126a565b90506020840151601f198483030160408501526115d5828261126a565b9150506040840151606084015260018060a01b036060850151166080840152608084015160a08401528091505092915050565b600181811c9082168061161c57607f821691505b60208210810361163a57634e487b7160e01b5f52602260045260245ffd5b50919050565b5f6001820161165d57634e487b7160e01b5f52601160045260245ffd5b5060010190565b601f82111561048957805f5260205f20601f840160051c810160208510156116895750805b601f840160051c820191505b81811015610e88575f8155600101611695565b815167ffffffffffffffff8111156116c2576116c261147b565b6116d6816116d08454611608565b84611664565b6020601f821160018114611708575f83156116f15750848201515b5f19600385901b1c1916600184901b178455610e88565b5f84815260208120601f198516915b828110156117375787850151825560209485019460019092019101611717565b508482101561175457868401515f19600387901b60f8161c191681555b50505050600190811b01905550565b60608152836060820152838560808301375f608085830181019190915260208201939093526001600160a01b03919091166040820152601f909201601f191690910101919050565b5f81518060208401855e5f93019283525090919050565b5f6111d16117d083866117ab565b846117ab565b6001600160a01b03858116825284166020820152604081018390526080606082018190525f906118089083018461126a565b9695505050505050565b5f60208284031215611822575f5ffd5b815161086a8161123a56fea2646970667358221220124a9e9694a5b3ad4d9a8ee50a10a95c2114bb90952de09e1df1cb9ce07df42964736f6c634300081c0033",
  "linkReferences": {},
  "deployedLinkReferences": {}
}