{
  "_format": "hh-sol-artifact-1",
  "contractName": "ALULogoToken",
  "sourceName": "contracts/ALULogoToken.sol",
  "abi": [
    {
      "inputs": [
        {
          "internalType": "address",
          "name": "logoOwner",
          "type": "address"
        }
      ],
      "stateMutability": "nonpayable",
      "type": "constructor"
    },
    {
      "inputs": [
        {
          "internalType": "address",
          "name": "spender",
          "type": "address"
        },
        {
          "internalType": "uint256",
          "name": "allowance",
          "type": "uint256"
        },
        {
          "internalType": "uint256",
          "name": "needed",
          "type": "uint256"
        }
      ],
      "name": "ERC20InsufficientAllowance",
      "type": "error"
    },
    {
      "inputs": [
        {
          "internalType": "address",
          "name": "sender",
          "type": "address"
        },
        {
          "internalType": "uint256",
          "name": "balance",
          "type": "uint256"
        },
        {
          "internalType": "uint256",
          "name": "needed",
          "type": "uint256"
        }
      ],
      "name": "ERC20InsufficientBalance",
      "type": "error"
    },
    {
      "inputs": [
        {
          "internalType": "address",
          "name": "approver",
          "type": "address"
        }
      ],
      "name": "ERC20InvalidApprover",
      "type": "error"
    },
    {
      "inputs": [
        {
          "internalType": "address",
          "name": "receiver",
          "type": "address"
        }
      ],
      "name": "ERC20InvalidReceiver",
      "type": "error"
    },
    {
      "inputs": [
        {
          "internalType": "address",
          "name": "sender",
          "type": "address"
        }
      ],
      "name": "ERC20InvalidSender",
      "type": "error"
    },
    {
      "inputs": [
        {
          "internalType": "address",
          "name": "spender",
          "type": "address"
        }
      ],
      "name": "ERC20InvalidSpender",
      "type": "error"
    },
    {
      "inputs": [
        {
          "internalType": "address",
          "name": "owner",
          "type": "address"
        }
      ],
      "name": "OwnableInvalidOwner",
      "type": "error"
    },
    {
      "inputs": [
        {
          "internalType": "address",
          "name": "account",
          "type": "address"
        }
      ],
      "name": "OwnableUnauthorizedAccount",
      "type": "error"
    },
    {
      "anonymous": false,
      "inputs": [
        {
          "indexed": true,
          "internalType": "address",
          "name": "owner",
          "type": "address"
        },
        {
          "indexed": true,
          "internalType": "address",
          "name": "spender",
          "type": "address"
        },
        {
          "indexed": false,
          "internalType": "uint256",
          "name": "value",
          "type": "uint256"
        }
      ],
      "name": "Approval",
      "type": "event"
    },
    {
      "anonymous": false,
      "inputs": [
        {
          "indexed": true,
          "internalType": "address",
          "name": "previousOwner",
          "type": "address"
        },
        {
          "indexed": true,
          "internalType": "address",
          "name": "newOwner",
          "type": "address"
        }
      ],
      "name": "OwnershipTransferred",
      "type": "event"
    },
    {
      "anonymous": false,
      "inputs": [
        {
          "indexed": true,
          "internalType": "address",
          "name": "from",
          "type": "address"
        },
        {
          "indexed": true,
          "internalType": "address",
          "name": "to",
          "type": "address"
        },
        {
          "indexed": false,
          "internalType": "uint256",
          "name": "value",
          "type": "uint256"
        }
      ],
      "name": "Transfer",
      "type": "event"
    },
    {
      "inputs": [],
      "name": "TOTAL_SUPPLY",
      "outputs": [
        {
          "internalType": "uint256",
          "name": "",
          "type": "uint256"
        }
      ],
      "stateMutability": "view",
      "type": "function"
    },
    {
      "inputs": [
        {
          "internalType": "address",
          "name": "owner",
          "type": "address"
        },
        {
          "internalType": "address",
          "name": "spender",
          "type": "address"
        }
      ],
      "name": "allowance",
      "outputs": [
        {
          "internalType": "uint256",
          "name": "",
          "type": "uint256"
        }
      ],
      "stateMutability": "view",
      "type": "function"
    },
    {
      "inputs": [
        {
          "internalType": "address",
          "name": "spender",
          "type": "address"
        },
        {
          "internalType": "uint256",
          "name": "value",
          "type": "uint256"
        }
      ],
      "name": "approve",
      "outputs": [
        {
          "internalType": "bool",
          "name": "",
          "type": "bool"
        }
      ],
      "stateMutability": "nonpayable",
      "type": "function"
    },
    {
      "inputs": [
        {
          "internalType": "address",
          "name": "account",
          "type": "address"
        }
      ],
      "name": "balanceOf",
      "outputs": [
        {
          "internalType": "uint256",
          "name": "",
          "type": "uint256"
        }
      ],
      "stateMutability": "view",
      "type": "function"
    },
    {
      "inputs": [],
      "name": "decimals",
      "outputs": [
        {
          "internalType": "uint8",
          "name": "",
          "type": "uint8"
        }
      ],
      "stateMutability": "view",
      "type": "function"
    },
    {
      "inputs": [
        {
          "internalType": "address",
          "name": "recipient",
          "type": "address"
        },
        {
          "internalType": "uint256",
          "name": "amount",
          "type": "uint256"
        }
      ],
      "name": "distributeShares",
      "outputs": [],
      "stateMutability": "nonpayable",
      "type": "function"
    },
    {
      "inputs": [],
      "name": "name",
      "outputs": [
        {
          "internalType": "string",
          "name": "",
          "type": "string"
        }
      ],
      "stateMutability": "view",
      "type": "function"
    },
    {
      "inputs": [],
      "name": "owner",
      "outputs": [
        {
          "internalType": "address",
          "name": "",
          "type": "address"
        }
      ],
      "stateMutability": "view",
      "type": "function"
    },
    {
      "inputs": [
        {
          "internalType": "address",
          "name": "account",
          "type": "address"
        }
      ],
      "name": "ownershipPercentage",
      "outputs": [
        {
          "internalType": "uint256",
          "name": "percentage",
          "type": "uint256"
        }
      ],
      "stateMutability": "view",
      "type": "function"
    },
    {
      "inputs": [],
      "name": "renounceOwnership",
      "outputs": [],
      "stateMutability": "nonpayable",
      "type": "function"
    },
    {
      "inputs": [],
      "name": "symbol",
      "outputs": [
        {
          "internalType": "string",
          "name": "",
          "type": "string"
        }
      ],
      "stateMutability": "view",
      "type": "function"
    },
    {
      "inputs": [],
      "name": "totalSupply",
      "outputs": [
        {
          "internalType": "uint256",
          "name": "",
          "type": "uint256"
        }
      ],
      "stateMutability": "view",
      "type": "function"
    },
    {
      "inputs": [
        {
          "internalType": "address",
          "name": "to",
          "type": "address"
        },
        {
          "internalType": "uint256",
          "name": "value",
          "type": "uint256"
        }
      ],
      "name": "transfer",
      "outputs": [
        {
          "internalType": "bool",
          "name": "",
          "type": "bool"
        }
      ],
      "stateMutability": "nonpayable",
      "type": "function"
    },
    {
      "inputs": [
        {
          "internalType": "address",
          "name": "from",
          "type": "address"
        },
        {
          "internalType": "address",
          "name": "to",
          "type": "address"
        },
        {
          "internalType": "uint256",
          "name": "value",
          "type": "uint256"
        }
      ],
      "name": "transferFrom",
      "outputs": [
        {
          "internalType": "bool",
          "name": "",
          "type": "bool"
        }
      ],
      "stateMutability": "nonpayable",
      "type": "function"
    },
    {
      "inputs": [
        {
          "internalType": "address",
          "name": "newOwner",
          "type": "address"
        }
      ],
      "name": "transferOwnership",
      "outputs": [],
      "stateMutability": "nonpayable",
      "type": "function"
    }
  ],
  "bytecode": "0x608060405234801561000f575f5ffd5b50604051610db3380380610db383398101604081905261002e91610293565b806040518060400160405280600e81526020016d20a62a902637b3b7902a37b5b2b760911b815250604051806040016040528060048152602001631053155560e21b81525081600390816100829190610358565b50600461008f8282610358565b5050506001600160a01b0381166100c057604051631e4fbdf760e01b81525f60048201526024015b60405180910390fd5b6100c9816100e4565b506100de8169d3c21bcecceda1000000610135565b50610437565b600580546001600160a01b038381166001600160a01b0319831681179093556040519116919082907f8be0079c531659141344cd1fd0a4f28419497f9722a3daafe3b4186f6b6457e0905f90a35050565b6001600160a01b03821661015e5760405163ec442f0560e01b81525f60048201526024016100b7565b6101695f838361016d565b5050565b6001600160a01b038316610197578060025f82825461018c9190610412565b909155506102079050565b6001600160a01b0383165f90815260208190526040902054818110156101e95760405163391434e360e21b81526001600160a01b038516600482015260248101829052604481018390526064016100b7565b6001600160a01b0384165f9081526020819052604090209082900390555b6001600160a01b03821661022357600280548290039055610241565b6001600160a01b0382165f9081526020819052604090208054820190555b816001600160a01b0316836001600160a01b03167fddf252ad1be2c89b69c2b068fc378daa952ba7f163c4a11628f55a4df523b3ef8360405161028691815260200190565b60405180910390a3505050565b5f602082840312156102a3575f5ffd5b81516001600160a01b03811681146102b9575f5ffd5b9392505050565b634e487b7160e01b5f52604160045260245ffd5b600181811c908216806102e857607f821691505b60208210810361030657634e487b7160e01b5f52602260045260245ffd5b50919050565b601f82111561035357805f5260205f20601f840160051c810160208510156103315750805b601f840160051c820191505b81811015610350575f815560010161033d565b50505b505050565b81516001600160401b03811115610371576103716102c0565b6103858161037f84546102d4565b8461030c565b6020601f8211600181146103b7575f83156103a05750848201515b5f19600385901b1c1916600184901b178455610350565b5f84815260208120601f198516915b828110156103e657878501518255602094850194600190920191016103c6565b508482101561040357868401515f19600387901b60f8161c191681555b50505050600190811b01905550565b8082018082111561043157634e487b7160e01b5f52601160045260245ffd5b92915050565b61096f806104445f395ff3fe608060405234801561000f575f5ffd5b50600436106100f0575f3560e01c80638da5cb5b11610093578063d8dab03311610063578063d8dab033146101e2578063dd62ed3e146101f5578063debcf0e51461022d578063f2fde38b14610240575f5ffd5b80638da5cb5b1461019b578063902d55a5146101b657806395d89b41146101c7578063a9059cbb146101cf575f5ffd5b806323b872dd116100ce57806323b872dd14610147578063313ce5671461015a57806370a0823114610169578063715018a614610191575f5ffd5b806306fdde03146100f4578063095ea7b31461011257806318160ddd14610135575b5f5ffd5b6100fc610253565b60405161010991906107a1565b60405180910390f35b6101256101203660046107f1565b6102e3565b6040519015158152602001610109565b6002545b604051908152602001610109565b610125610155366004610819565b6102fc565b60405160128152602001610109565b610139610177366004610853565b6001600160a01b03165f9081526020819052604090205490565b61019961031f565b005b6005546040516001600160a01b039091168152602001610109565b61013969d3c21bcecceda100000081565b6100fc610332565b6101256101dd3660046107f1565b610341565b6101396101f0366004610853565b61034e565b610139610203366004610873565b6001600160a01b039182165f90815260016020908152604080832093909416825291909152205490565b61019961023b3660046107f1565b610387565b61019961024e366004610853565b610403565b606060038054610262906108a4565b80601f016020809104026020016040519081016040528092919081815260200182805461028e906108a4565b80156102d95780601f106102b0576101008083540402835291602001916102d9565b820191905f5260205f20905b8154815290600101906020018083116102bc57829003601f168201915b5050505050905090565b5f336102f0818585610440565b60019150505b92915050565b5f33610309858285610452565b6103148585856104ce565b506001949350505050565b61032761052b565b6103305f610558565b565b606060048054610262906108a4565b5f336102f08185856104ce565b6001600160a01b0381165f9081526020819052604081205469d3c21bcecceda10000009061037d9060646108f0565b6102f69190610907565b61038f61052b565b5f81116103e35760405162461bcd60e51b815260206004820181905260248201527f416d6f756e74206d7573742062652067726561746572207468616e207a65726f60448201526064015b60405180910390fd5b6103ff6103f86005546001600160a01b031690565b83836104ce565b5050565b61040b61052b565b6001600160a01b03811661043457604051631e4fbdf760e01b81525f60048201526024016103da565b61043d81610558565b50565b61044d83838360016105a9565b505050565b6001600160a01b038381165f908152600160209081526040808320938616835292905220545f198110156104c857818110156104ba57604051637dc7a0d960e11b81526001600160a01b038416600482015260248101829052604481018390526064016103da565b6104c884848484035f6105a9565b50505050565b6001600160a01b0383166104f757604051634b637e8f60e11b81525f60048201526024016103da565b6001600160a01b0382166105205760405163ec442f0560e01b81525f60048201526024016103da565b61044d83838361067b565b6005546001600160a01b031633146103305760405163118cdaa760e01b81523360048201526024016103da565b600580546001600160a01b038381166001600160a01b0319831681179093556040519116919082907f8be0079c531659141344cd1fd0a4f28419497f9722a3daafe3b4186f6b6457e0905f90a35050565b6001600160a01b0384166105d25760405163e602df0560e01b81525f60048201526024016103da565b6001600160a01b0383166105fb57604051634a1406b160e11b81525f60048201526024016103da565b6001600160a01b038085165f90815260016020908152604080832093871683529290522082905580156104c857826001600160a01b0316846001600160a01b03167f8c5be1e5ebec7d5bd14f71427d1e84f3dd0314c0f7b2291e5b200ac8c7c3b9258460405161066d91815260200190565b60405180910390a350505050565b6001600160a01b0383166106a5578060025f82825461069a9190610926565b909155506107159050565b6001600160a01b0383165f90815260208190526040902054818110156106f75760405163391434e360e21b81526001600160a01b038516600482015260248101829052604481018390526064016103da565b6001600160a01b0384165f9081526020819052604090209082900390555b6001600160a01b0382166107315760028054829003905561074f565b6001600160a01b0382165f9081526020819052604090208054820190555b816001600160a01b0316836001600160a01b03167fddf252ad1be2c89b69c2b068fc378daa952ba7f163c4a11628f55a4df523b3ef8360405161079491815260200190565b60405180910390a3505050565b602081525f82518060208401528060208501604085015e5f604082850101526040601f19601f83011684010191505092915050565b80356001600160a01b03811681146107ec575f5ffd5b919050565b5f5f60408385031215610802575f5ffd5b61080b836107d6565b946020939093013593505050565b5f5f5f6060848603121561082b575f5ffd5b610834846107d6565b9250610842602085016107d6565b929592945050506040919091013590565b5f60208284031215610863575f5ffd5b61086c826107d6565b9392505050565b5f5f60408385031215610884575f5ffd5b61088d836107d6565b915061089b602084016107d6565b90509250929050565b600181811c908216806108b857607f821691505b6020821081036108d657634e487b7160e01b5f52602260045260245ffd5b50919050565b634e487b7160e01b5f52601160045260245ffd5b80820281158282048414176102f6576102f66108dc565b5f8261092157634e487b7160e01b5f52601260045260245ffd5b500490565b808201808211156102f6576102f66108dc56fea264697066735822122095477cd52837ecc947629fc807d825ff503ffa21b1ea80961326aa2c4a213ae164736f6c634300081c0033",
  "linkReferences": {},
  "deployedLinkReferences": {}
}